{
  "contractName": "PoolAddressTest",
  "abi": [
    {
      "inputs": [],
      "name": "POOL_INIT_CODE_HASH",
      "outputs": [
        {
          "internalType": "bytes32",
          "name": "",
          "type": "bytes32"
        }
      ],
      "stateMutability": "pure",
      "type": "function"
    },
    {
      "inputs": [
        {
          "internalType": "address",
          "name": "factory",
          "type": "address"
        },
        {
          "internalType": "address",
          "name": "token0",
          "type": "address"
        },
        {
          "internalType": "address",
          "name": "token1",
          "type": "address"
        },
        {
          "internalType": "uint24",
          "name": "fee",
          "type": "uint24"
        }
      ],
      "name": "computeAddress",
      "outputs": [
        {
          "internalType": "address",
          "name": "",
          "type": "address"
        }
      ],
      "stateMutability": "pure",
      "type": "function"
    },
    {
      "inputs": [
        {
          "internalType": "address",
          "name": "factory",
          "type": "address"
        },
        {
          "internalType": "address",
          "name": "token0",
          "type": "address"
        },
        {
          "internalType": "address",
          "name": "token1",
          "type": "address"
        },
        {
          "internalType": "uint24",
          "name": "fee",
          "type": "uint24"
        }
      ],
      "name": "getGasCostOfComputeAddress",
      "outputs": [
        {
          "internalType": "uint256",
          "name": "",
          "type": "uint256"
        }
      ],
      "stateMutability": "view",
      "type": "function"
    }
  ],
  "bytecode": "0x608060405234801561001057600080fd5b506102d2806100206000396000f3fe608060405234801561001057600080fd5b50600436106100415760003560e01c80638716c5ff14610046578063cce34ec6146100a4578063dc6fd8ab146100f8575b600080fd5b6100886004803603608081101561005c57600080fd5b5080356001600160a01b03908116916020810135821691604082013516906060013562ffffff16610100565b604080516001600160a01b039092168252519081900360200190f35b6100e6600480360360808110156100ba57600080fd5b5080356001600160a01b03908116916020810135821691604082013516906060013562ffffff16610146565b60408051918252519081900360200190f35b6100e6610194565b600061013d856040518060600160405280876001600160a01b03168152602001866001600160a01b031681526020018562ffffff168152506101b8565b95945050505050565b6000805a9050610187866040518060600160405280886001600160a01b03168152602001876001600160a01b031681526020018662ffffff168152506101b8565b505a900395945050505050565b7fe34f199b19b2b4f47f68442619d555527d244f78a3297ea89325f843f87b8b5490565b600081602001516001600160a01b031682600001516001600160a01b0316106101e057600080fd5b50805160208083015160409384015184516001600160a01b0394851681850152939091168385015262ffffff166060808401919091528351808403820181526080840185528051908301206001600160f81b031960a085015294901b6bffffffffffffffffffffffff191660a183015260b58201939093527fe34f199b19b2b4f47f68442619d555527d244f78a3297ea89325f843f87b8b5460d5808301919091528251808303909101815260f590910190915280519101209056fea264697066735822122072826c8a1abe70c4af17656db73ef20683237d6a7accb8456e24295e8180d96c64736f6c63430007060033",
  "immutableReferences": {},
  "source": "// SPDX-License-Identifier: UNLICENSED\r\npragma solidity =0.7.6;\r\n\r\nimport '../libraries/PoolAddress.sol';\r\n\r\ncontract PoolAddressTest {\r\n    function POOL_INIT_CODE_HASH() external pure returns (bytes32) {\r\n        return PoolAddress.POOL_INIT_CODE_HASH;\r\n    }\r\n\r\n    function computeAddress(\r\n        address factory,\r\n        address token0,\r\n        address token1,\r\n        uint24 fee\r\n    ) external pure returns (address) {\r\n        return PoolAddress.computeAddress(factory, PoolAddress.PoolKey({token0: token0, token1: token1, fee: fee}));\r\n    }\r\n\r\n    function getGasCostOfComputeAddress(\r\n        address factory,\r\n        address token0,\r\n        address token1,\r\n        uint24 fee\r\n    ) external view returns (uint256) {\r\n        uint256 gasBefore = gasleft();\r\n        PoolAddress.computeAddress(factory, PoolAddress.PoolKey({token0: token0, token1: token1, fee: fee}));\r\n        return gasBefore - gasleft();\r\n    }\r\n}\r\n",
  "sourcePath": "D:/Blockchain Projects/Uniswap V3 Fork/periphery/contracts/test/PoolAddressTest.sol",
  "compiler": {
    "name": "solc",
    "version": "0.7.6+commit.7338295f.Emscripten.clang"
  },
  "schemaVersion": "3.4.1",
  "updatedAt": "2021-06-16T07:48:26.633Z",
  "devdoc": {
    "kind": "dev",
    "methods": {},
    "version": 1
  },
  "userdoc": {
    "kind": "user",
    "methods": {},
    "version": 1
  }
}