{
  "contractName": "Quoter",
  "abi": [
    {
      "inputs": [
        {
          "internalType": "address",
          "name": "_factory",
          "type": "address"
        },
        {
          "internalType": "address",
          "name": "_WETH9",
          "type": "address"
        }
      ],
      "stateMutability": "nonpayable",
      "type": "constructor"
    },
    {
      "inputs": [],
      "name": "WETH9",
      "outputs": [
        {
          "internalType": "address",
          "name": "",
          "type": "address"
        }
      ],
      "stateMutability": "view",
      "type": "function"
    },
    {
      "inputs": [],
      "name": "factory",
      "outputs": [
        {
          "internalType": "address",
          "name": "",
          "type": "address"
        }
      ],
      "stateMutability": "view",
      "type": "function"
    },
    {
      "inputs": [
        {
          "internalType": "int256",
          "name": "amount0Delta",
          "type": "int256"
        },
        {
          "internalType": "int256",
          "name": "amount1Delta",
          "type": "int256"
        },
        {
          "internalType": "bytes",
          "name": "path",
          "type": "bytes"
        }
      ],
      "name": "uniswapV3SwapCallback",
      "outputs": [],
      "stateMutability": "view",
      "type": "function"
    },
    {
      "inputs": [
        {
          "internalType": "address",
          "name": "tokenIn",
          "type": "address"
        },
        {
          "internalType": "address",
          "name": "tokenOut",
          "type": "address"
        },
        {
          "internalType": "uint24",
          "name": "fee",
          "type": "uint24"
        },
        {
          "internalType": "uint256",
          "name": "amountIn",
          "type": "uint256"
        },
        {
          "internalType": "uint160",
          "name": "sqrtPriceLimitX96",
          "type": "uint160"
        }
      ],
      "name": "quoteExactInputSingle",
      "outputs": [
        {
          "internalType": "uint256",
          "name": "amountOut",
          "type": "uint256"
        }
      ],
      "stateMutability": "nonpayable",
      "type": "function"
    },
    {
      "inputs": [
        {
          "internalType": "bytes",
          "name": "path",
          "type": "bytes"
        },
        {
          "internalType": "uint256",
          "name": "amountIn",
          "type": "uint256"
        }
      ],
      "name": "quoteExactInput",
      "outputs": [
        {
          "internalType": "uint256",
          "name": "amountOut",
          "type": "uint256"
        }
      ],
      "stateMutability": "nonpayable",
      "type": "function"
    },
    {
      "inputs": [
        {
          "internalType": "address",
          "name": "tokenIn",
          "type": "address"
        },
        {
          "internalType": "address",
          "name": "tokenOut",
          "type": "address"
        },
        {
          "internalType": "uint24",
          "name": "fee",
          "type": "uint24"
        },
        {
          "internalType": "uint256",
          "name": "amountOut",
          "type": "uint256"
        },
        {
          "internalType": "uint160",
          "name": "sqrtPriceLimitX96",
          "type": "uint160"
        }
      ],
      "name": "quoteExactOutputSingle",
      "outputs": [
        {
          "internalType": "uint256",
          "name": "amountIn",
          "type": "uint256"
        }
      ],
      "stateMutability": "nonpayable",
      "type": "function"
    },
    {
      "inputs": [
        {
          "internalType": "bytes",
          "name": "path",
          "type": "bytes"
        },
        {
          "internalType": "uint256",
          "name": "amountOut",
          "type": "uint256"
        }
      ],
      "name": "quoteExactOutput",
      "outputs": [
        {
          "internalType": "uint256",
          "name": "amountIn",
          "type": "uint256"
        }
      ],
      "stateMutability": "nonpayable",
      "type": "function"
    }
  ],
  "bytecode": "0x60c060405234801561001057600080fd5b50604051610f86380380610f8683398101604081905261002f91610069565b6001600160601b0319606092831b8116608052911b1660a05261009b565b80516001600160a01b038116811461006457600080fd5b919050565b6000806040838503121561007b578182fd5b6100848361004d565b91506100926020840161004d565b90509250929050565b60805160601c60a05160601c610eb86100ce600039806102f052508061031452806104ef52806105ec5250610eb86000f3fe608060405234801561001057600080fd5b506004361061007d5760003560e01c8063c45a01551161005b578063c45a0155146100d3578063cdca1753146100db578063f7729d43146100ee578063fa461e33146101015761007d565b80632f80bb1d1461008257806330d07f21146100ab5780634aa4a4fc146100be575b600080fd5b610095610090366004610bb0565b610116565b6040516100a29190610deb565b60405180910390f35b6100956100b9366004610b42565b61017b565b6100c66102ee565b6040516100a29190610d4d565b6100c6610312565b6100956100e9366004610bb0565b610336565b6100956100fc366004610b42565b610384565b61011461010f366004610c16565b6104be565b005b60005b600061012484610595565b905060008060006101348761059d565b92509250925061014882848389600061017b565b9550831561016057610159876105ce565b965061016c565b85945050505050610175565b50505050610119565b92915050565b60006001600160a01b03808616878216109083166101995760008490555b6101a48787876105e5565b6001600160a01b031663128acb0830836101bd88610623565b6000036001600160a01b038816156101d557876101fb565b856101f45773fffd8963efd1fc6a506488495d951d5263988d256101fb565b6401000276a45b8b8b8e60405160200161021093929190610d12565b6040516020818303038152906040526040518663ffffffff1660e01b815260040161023f959493929190610d61565b6040805180830381600087803b15801561025857600080fd5b505af1925050508015610288575060408051601f3d908101601f1916820190925261028591810190610bf3565b60015b6102e1573d8080156102b6576040519150601f19603f3d011682016040523d82523d6000602084013e6102bb565b606091505b506001600160a01b0384166102cf57600080555b6102d881610639565b925050506102e5565b5050505b95945050505050565b7f000000000000000000000000000000000000000000000000000000000000000081565b7f000000000000000000000000000000000000000000000000000000000000000081565b60005b600061034484610595565b905060008060006103548761059d565b925092509250610368838383896000610384565b9550831561016057610379876105ce565b965050505050610339565b60006001600160a01b03808616908716106103a08787876105e5565b6001600160a01b031663128acb0830836103b988610623565b6001600160a01b038816156103ce57876103f4565b856103ed5773fffd8963efd1fc6a506488495d951d5263988d256103f4565b6401000276a45b8c8b8d60405160200161040993929190610d12565b6040516020818303038152906040526040518663ffffffff1660e01b8152600401610438959493929190610d61565b6040805180830381600087803b15801561045157600080fd5b505af1925050508015610481575060408051601f3d908101601f1916820190925261047e91810190610bf3565b60015b6102e1573d8080156104af576040519150601f19603f3d011682016040523d82523d6000602084013e6104b4565b606091505b506102d881610639565b60008313806104cd5750600082135b6104d657600080fd5b60008060006104e48461059d565b9250925092506105167f00000000000000000000000000000000000000000000000000000000000000008484846106b6565b50600080600080891361054257856001600160a01b0316856001600160a01b031610888a60000361055d565b846001600160a01b0316866001600160a01b03161089896000035b925092509250821561057457604051818152602081fd5b6000541561058a57600054811461058a57600080fd5b604051828152602081fd5b516042111590565b600080806105ab84826106cc565b92506105b884601461077c565b90506105c58460176106cc565b91509193909250565b805160609061017590839060179060161901610823565b600061061b7f0000000000000000000000000000000000000000000000000000000000000000610616868686610974565b6109ca565b949350505050565b6000600160ff1b821061063557600080fd5b5090565b600081516020146106a25760448251101561066f5760405162461bcd60e51b815260040161066690610dc1565b60405180910390fd5b600482019150818060200190518101906106899190610c64565b60405162461bcd60e51b81526004016106669190610da7565b818060200190518101906101759190610cce565b60006102e5856106c7868686610974565b610aae565b60008182601401101561071b576040805162461bcd60e51b8152602060048201526012602482015271746f416464726573735f6f766572666c6f7760701b604482015290519081900360640190fd5b816014018351101561076c576040805162461bcd60e51b8152602060048201526015602482015274746f416464726573735f6f75744f66426f756e647360581b604482015290519081900360640190fd5b500160200151600160601b900490565b6000818260030110156107ca576040805162461bcd60e51b8152602060048201526011602482015270746f55696e7432345f6f766572666c6f7760781b604482015290519081900360640190fd5b816003018351101561081a576040805162461bcd60e51b8152602060048201526014602482015273746f55696e7432345f6f75744f66426f756e647360601b604482015290519081900360640190fd5b50016003015190565b60608182601f01101561086e576040805162461bcd60e51b815260206004820152600e60248201526d736c6963655f6f766572666c6f7760901b604482015290519081900360640190fd5b8282840110156108b6576040805162461bcd60e51b815260206004820152600e60248201526d736c6963655f6f766572666c6f7760901b604482015290519081900360640190fd5b81830184511015610902576040805162461bcd60e51b8152602060048201526011602482015270736c6963655f6f75744f66426f756e647360781b604482015290519081900360640190fd5b606082158015610921576040519150600082526020820160405261096b565b6040519150601f8416801560200281840101858101878315602002848b0101015b8183101561095a578051835260209283019201610942565b5050858452601f01601f1916604052505b50949350505050565b61097c610ad1565b826001600160a01b0316846001600160a01b0316111561099a579192915b50604080516060810182526001600160a01b03948516815292909316602083015262ffffff169181019190915290565b600081602001516001600160a01b031682600001516001600160a01b0316106109f257600080fd5b50805160208083015160409384015184516001600160a01b0394851681850152939091168385015262ffffff166060808401919091528351808403820181526080840185528051908301206001600160f81b031960a085015294901b6bffffffffffffffffffffffff191660a183015260b58201939093527fe34f199b19b2b4f47f68442619d555527d244f78a3297ea89325f843f87b8b5460d5808301919091528251808303909101815260f5909101909152805191012090565b6000610aba83836109ca565b9050336001600160a01b0382161461017557600080fd5b604080516060810182526000808252602082018190529181019190915290565b600082601f830112610b01578081fd5b8135610b14610b0f82610e18565b610df4565b818152846020838601011115610b28578283fd5b816020850160208301379081016020019190915292915050565b600080600080600060a08688031215610b59578081fd5b8535610b6481610e6a565b94506020860135610b7481610e6a565b9350604086013562ffffff81168114610b8b578182fd5b9250606086013591506080860135610ba281610e6a565b809150509295509295909350565b60008060408385031215610bc2578182fd5b823567ffffffffffffffff811115610bd8578283fd5b610be485828601610af1565b95602094909401359450505050565b60008060408385031215610c05578182fd5b505080516020909101519092909150565b600080600060608486031215610c2a578283fd5b8335925060208401359150604084013567ffffffffffffffff811115610c4e578182fd5b610c5a86828701610af1565b9150509250925092565b600060208284031215610c75578081fd5b815167ffffffffffffffff811115610c8b578182fd5b8201601f81018413610c9b578182fd5b8051610ca9610b0f82610e18565b818152856020838501011115610cbd578384fd5b6102e5826020830160208601610e3a565b600060208284031215610cdf578081fd5b5051919050565b60008151808452610cfe816020860160208601610e3a565b601f01601f19169290920160200192915050565b606093841b6bffffffffffffffffffffffff19908116825260e89390931b6001600160e81b0319166014820152921b166017820152602b0190565b6001600160a01b0391909116815260200190565b6001600160a01b0386811682528515156020830152604082018590528316606082015260a060808201819052600090610d9c90830184610ce6565b979650505050505050565b600060208252610dba6020830184610ce6565b9392505050565b60208082526010908201526f2ab732bc3832b1ba32b21032b93937b960811b604082015260600190565b90815260200190565b60405181810167ffffffffffffffff81118282101715610e1057fe5b604052919050565b600067ffffffffffffffff821115610e2c57fe5b50601f01601f191660200190565b60005b83811015610e55578181015183820152602001610e3d565b83811115610e64576000848401525b50505050565b6001600160a01b0381168114610e7f57600080fd5b5056fea2646970667358221220374c323c828b9e58e7bff3fe1c629e7f5b06d7ad1ba9130a37643bc9aab8ca8064736f6c63430007060033",
  "immutableReferences": {
    "3130": [
      {
        "length": 32,
        "start": 788
      },
      {
        "length": 32,
        "start": 1263
      },
      {
        "length": 32,
        "start": 1516
      }
    ],
    "3134": [
      {
        "length": 32,
        "start": 752
      }
    ]
  },
  "source": "// SPDX-License-Identifier: GPL-2.0-or-later\r\npragma solidity =0.7.6;\r\npragma abicoder v2;\r\n\r\nimport '@uniswap/v3-core/contracts/libraries/SafeCast.sol';\r\nimport '@uniswap/v3-core/contracts/libraries/TickMath.sol';\r\nimport '@uniswap/v3-core/contracts/interfaces/IUniswapV3Pool.sol';\r\nimport '@uniswap/v3-core/contracts/interfaces/callback/IUniswapV3SwapCallback.sol';\r\n\r\nimport '../interfaces/IQuoter.sol';\r\nimport '../base/PeripheryImmutableState.sol';\r\nimport '../libraries/Path.sol';\r\nimport '../libraries/PoolAddress.sol';\r\nimport '../libraries/CallbackValidation.sol';\r\n\r\n/// @title Provides quotes for swaps\r\n/// @notice Allows getting the expected amount out or amount in for a given swap without executing the swap\r\n/// @dev These functions are not gas efficient and should _not_ be called on chain. Instead, optimistically execute\r\n/// the swap and check the amounts in the callback.\r\ncontract Quoter is IQuoter, IUniswapV3SwapCallback, PeripheryImmutableState {\r\n    using Path for bytes;\r\n    using SafeCast for uint256;\r\n\r\n    /// @dev Transient storage variable used to check a safety condition in exact output swaps.\r\n    uint256 private amountOutCached;\r\n\r\n    constructor(address _factory, address _WETH9) PeripheryImmutableState(_factory, _WETH9) {}\r\n\r\n    function getPool(\r\n        address tokenA,\r\n        address tokenB,\r\n        uint24 fee\r\n    ) private view returns (IUniswapV3Pool) {\r\n        return IUniswapV3Pool(PoolAddress.computeAddress(factory, PoolAddress.getPoolKey(tokenA, tokenB, fee)));\r\n    }\r\n\r\n    /// @inheritdoc IUniswapV3SwapCallback\r\n    function uniswapV3SwapCallback(\r\n        int256 amount0Delta,\r\n        int256 amount1Delta,\r\n        bytes memory path\r\n    ) external view override {\r\n        require(amount0Delta > 0 || amount1Delta > 0); // swaps entirely within 0-liquidity regions are not supported\r\n        (address tokenIn, address tokenOut, uint24 fee) = path.decodeFirstPool();\r\n        CallbackValidation.verifyCallback(factory, tokenIn, tokenOut, fee);\r\n\r\n        (bool isExactInput, uint256 amountToPay, uint256 amountReceived) =\r\n            amount0Delta > 0\r\n                ? (tokenIn < tokenOut, uint256(amount0Delta), uint256(-amount1Delta))\r\n                : (tokenOut < tokenIn, uint256(amount1Delta), uint256(-amount0Delta));\r\n        if (isExactInput) {\r\n            assembly {\r\n                let ptr := mload(0x40)\r\n                mstore(ptr, amountReceived)\r\n                revert(ptr, 32)\r\n            }\r\n        } else {\r\n            // if the cache has been populated, ensure that the full output amount has been received\r\n            if (amountOutCached != 0) require(amountReceived == amountOutCached);\r\n            assembly {\r\n                let ptr := mload(0x40)\r\n                mstore(ptr, amountToPay)\r\n                revert(ptr, 32)\r\n            }\r\n        }\r\n    }\r\n\r\n    /// @dev Parses a revert reason that should contain the numeric quote\r\n    function parseRevertReason(bytes memory reason) private pure returns (uint256) {\r\n        if (reason.length != 32) {\r\n            if (reason.length < 68) revert('Unexpected error');\r\n            assembly {\r\n                reason := add(reason, 0x04)\r\n            }\r\n            revert(abi.decode(reason, (string)));\r\n        }\r\n        return abi.decode(reason, (uint256));\r\n    }\r\n\r\n    /// @inheritdoc IQuoter\r\n    function quoteExactInputSingle(\r\n        address tokenIn,\r\n        address tokenOut,\r\n        uint24 fee,\r\n        uint256 amountIn,\r\n        uint160 sqrtPriceLimitX96\r\n    ) public override returns (uint256 amountOut) {\r\n        bool zeroForOne = tokenIn < tokenOut;\r\n\r\n        try\r\n            getPool(tokenIn, tokenOut, fee).swap(\r\n                address(this), // address(0) might cause issues with some tokens\r\n                zeroForOne,\r\n                amountIn.toInt256(),\r\n                sqrtPriceLimitX96 == 0\r\n                    ? (zeroForOne ? TickMath.MIN_SQRT_RATIO + 1 : TickMath.MAX_SQRT_RATIO - 1)\r\n                    : sqrtPriceLimitX96,\r\n                abi.encodePacked(tokenIn, fee, tokenOut)\r\n            )\r\n        {} catch (bytes memory reason) {\r\n            return parseRevertReason(reason);\r\n        }\r\n    }\r\n\r\n    /// @inheritdoc IQuoter\r\n    function quoteExactInput(bytes memory path, uint256 amountIn) external override returns (uint256 amountOut) {\r\n        while (true) {\r\n            bool hasMultiplePools = path.hasMultiplePools();\r\n\r\n            (address tokenIn, address tokenOut, uint24 fee) = path.decodeFirstPool();\r\n\r\n            // the outputs of prior swaps become the inputs to subsequent ones\r\n            amountIn = quoteExactInputSingle(tokenIn, tokenOut, fee, amountIn, 0);\r\n\r\n            // decide whether to continue or terminate\r\n            if (hasMultiplePools) {\r\n                path = path.skipToken();\r\n            } else {\r\n                return amountIn;\r\n            }\r\n        }\r\n    }\r\n\r\n    /// @inheritdoc IQuoter\r\n    function quoteExactOutputSingle(\r\n        address tokenIn,\r\n        address tokenOut,\r\n        uint24 fee,\r\n        uint256 amountOut,\r\n        uint160 sqrtPriceLimitX96\r\n    ) public override returns (uint256 amountIn) {\r\n        bool zeroForOne = tokenIn < tokenOut;\r\n\r\n        // if no price limit has been specified, cache the output amount for comparison in the swap callback\r\n        if (sqrtPriceLimitX96 == 0) amountOutCached = amountOut;\r\n        try\r\n            getPool(tokenIn, tokenOut, fee).swap(\r\n                address(this), // address(0) might cause issues with some tokens\r\n                zeroForOne,\r\n                -amountOut.toInt256(),\r\n                sqrtPriceLimitX96 == 0\r\n                    ? (zeroForOne ? TickMath.MIN_SQRT_RATIO + 1 : TickMath.MAX_SQRT_RATIO - 1)\r\n                    : sqrtPriceLimitX96,\r\n                abi.encodePacked(tokenOut, fee, tokenIn)\r\n            )\r\n        {} catch (bytes memory reason) {\r\n            if (sqrtPriceLimitX96 == 0) delete amountOutCached; // clear cache\r\n            return parseRevertReason(reason);\r\n        }\r\n    }\r\n\r\n    /// @inheritdoc IQuoter\r\n    function quoteExactOutput(bytes memory path, uint256 amountOut) external override returns (uint256 amountIn) {\r\n        while (true) {\r\n            bool hasMultiplePools = path.hasMultiplePools();\r\n\r\n            (address tokenOut, address tokenIn, uint24 fee) = path.decodeFirstPool();\r\n\r\n            // the inputs of prior swaps become the outputs of subsequent ones\r\n            amountOut = quoteExactOutputSingle(tokenIn, tokenOut, fee, amountOut, 0);\r\n\r\n            // decide whether to continue or terminate\r\n            if (hasMultiplePools) {\r\n                path = path.skipToken();\r\n            } else {\r\n                return amountOut;\r\n            }\r\n        }\r\n    }\r\n}\r\n",
  "sourcePath": "D:/Blockchain Projects/Uniswap V3 Fork/periphery/contracts/lens/Quoter.sol",
  "compiler": {
    "name": "solc",
    "version": "0.7.6+commit.7338295f.Emscripten.clang"
  },
  "schemaVersion": "3.4.1",
  "updatedAt": "2021-06-16T07:48:26.481Z",
  "devdoc": {
    "details": "These functions are not gas efficient and should _not_ be called on chain. Instead, optimistically execute the swap and check the amounts in the callback.",
    "kind": "dev",
    "methods": {
      "quoteExactInput(bytes,uint256)": {
        "params": {
          "amountIn": "The amount of the first token to swap",
          "path": "The path of the swap, i.e. each token pair and the pool fee"
        },
        "returns": {
          "amountOut": "The amount of the last token that would be received"
        }
      },
      "quoteExactInputSingle(address,address,uint24,uint256,uint160)": {
        "params": {
          "amountIn": "The desired input amount",
          "fee": "The fee of the token pool to consider for the pair",
          "sqrtPriceLimitX96": "The price limit of the pool that cannot be exceeded by the swap",
          "tokenIn": "The token being swapped in",
          "tokenOut": "The token being swapped out"
        },
        "returns": {
          "amountOut": "The amount of `tokenOut` that would be received"
        }
      },
      "quoteExactOutput(bytes,uint256)": {
        "params": {
          "amountOut": "The amount of the last token to receive",
          "path": "The path of the swap, i.e. each token pair and the pool fee. Path must be provided in reverse order"
        },
        "returns": {
          "amountIn": "The amount of first token required to be paid"
        }
      },
      "quoteExactOutputSingle(address,address,uint24,uint256,uint160)": {
        "params": {
          "amountOut": "The desired output amount",
          "fee": "The fee of the token pool to consider for the pair",
          "sqrtPriceLimitX96": "The price limit of the pool that cannot be exceeded by the swap",
          "tokenIn": "The token being swapped in",
          "tokenOut": "The token being swapped out"
        },
        "returns": {
          "amountIn": "The amount required as the input for the swap in order to receive `amountOut`"
        }
      },
      "uniswapV3SwapCallback(int256,int256,bytes)": {
        "details": "In the implementation you must pay the pool tokens owed for the swap. The caller of this method must be checked to be a UniswapV3Pool deployed by the canonical UniswapV3Factory. amount0Delta and amount1Delta can both be 0 if no tokens were swapped.",
        "params": {
          "amount0Delta": "The amount of token0 that was sent (negative) or must be received (positive) by the pool by the end of the swap. If positive, the callback must send that amount of token0 to the pool.",
          "amount1Delta": "The amount of token1 that was sent (negative) or must be received (positive) by the pool by the end of the swap. If positive, the callback must send that amount of token1 to the pool.",
          "data": "Any data passed through by the caller via the IUniswapV3PoolActions#swap call"
        }
      }
    },
    "stateVariables": {
      "amountOutCached": {
        "details": "Transient storage variable used to check a safety condition in exact output swaps."
      }
    },
    "title": "Provides quotes for swaps",
    "version": 1
  },
  "userdoc": {
    "kind": "user",
    "methods": {
      "quoteExactInput(bytes,uint256)": {
        "notice": "Returns the amount out received for a given exact input swap without executing the swap"
      },
      "quoteExactInputSingle(address,address,uint24,uint256,uint160)": {
        "notice": "Returns the amount out received for a given exact input but for a swap of a single pool"
      },
      "quoteExactOutput(bytes,uint256)": {
        "notice": "Returns the amount in required for a given exact output swap without executing the swap"
      },
      "quoteExactOutputSingle(address,address,uint24,uint256,uint160)": {
        "notice": "Returns the amount in required to receive the given exact output amount but for a swap of a single pool"
      },
      "uniswapV3SwapCallback(int256,int256,bytes)": {
        "notice": "Called to `msg.sender` after executing a swap via IUniswapV3Pool#swap."
      }
    },
    "notice": "Allows getting the expected amount out or amount in for a given swap without executing the swap",
    "version": 1
  }
}