{
  "contractName": "SwapRouter",
  "abi": [
    {
      "inputs": [
        {
          "internalType": "address",
          "name": "_factory",
          "type": "address"
        },
        {
          "internalType": "address",
          "name": "_WETH9",
          "type": "address"
        }
      ],
      "stateMutability": "nonpayable",
      "type": "constructor"
    },
    {
      "inputs": [],
      "name": "WETH9",
      "outputs": [
        {
          "internalType": "address",
          "name": "",
          "type": "address"
        }
      ],
      "stateMutability": "view",
      "type": "function",
      "constant": true
    },
    {
      "inputs": [],
      "name": "factory",
      "outputs": [
        {
          "internalType": "address",
          "name": "",
          "type": "address"
        }
      ],
      "stateMutability": "view",
      "type": "function",
      "constant": true
    },
    {
      "inputs": [
        {
          "internalType": "bytes[]",
          "name": "data",
          "type": "bytes[]"
        }
      ],
      "name": "multicall",
      "outputs": [
        {
          "internalType": "bytes[]",
          "name": "results",
          "type": "bytes[]"
        }
      ],
      "stateMutability": "payable",
      "type": "function",
      "payable": true
    },
    {
      "inputs": [],
      "name": "refundETH",
      "outputs": [],
      "stateMutability": "payable",
      "type": "function",
      "payable": true
    },
    {
      "inputs": [
        {
          "internalType": "address",
          "name": "token",
          "type": "address"
        },
        {
          "internalType": "uint256",
          "name": "value",
          "type": "uint256"
        },
        {
          "internalType": "uint256",
          "name": "deadline",
          "type": "uint256"
        },
        {
          "internalType": "uint8",
          "name": "v",
          "type": "uint8"
        },
        {
          "internalType": "bytes32",
          "name": "r",
          "type": "bytes32"
        },
        {
          "internalType": "bytes32",
          "name": "s",
          "type": "bytes32"
        }
      ],
      "name": "selfPermit",
      "outputs": [],
      "stateMutability": "payable",
      "type": "function",
      "payable": true
    },
    {
      "inputs": [
        {
          "internalType": "address",
          "name": "token",
          "type": "address"
        },
        {
          "internalType": "uint256",
          "name": "nonce",
          "type": "uint256"
        },
        {
          "internalType": "uint256",
          "name": "expiry",
          "type": "uint256"
        },
        {
          "internalType": "uint8",
          "name": "v",
          "type": "uint8"
        },
        {
          "internalType": "bytes32",
          "name": "r",
          "type": "bytes32"
        },
        {
          "internalType": "bytes32",
          "name": "s",
          "type": "bytes32"
        }
      ],
      "name": "selfPermitAllowed",
      "outputs": [],
      "stateMutability": "payable",
      "type": "function",
      "payable": true
    },
    {
      "inputs": [
        {
          "internalType": "address",
          "name": "token",
          "type": "address"
        },
        {
          "internalType": "uint256",
          "name": "nonce",
          "type": "uint256"
        },
        {
          "internalType": "uint256",
          "name": "expiry",
          "type": "uint256"
        },
        {
          "internalType": "uint8",
          "name": "v",
          "type": "uint8"
        },
        {
          "internalType": "bytes32",
          "name": "r",
          "type": "bytes32"
        },
        {
          "internalType": "bytes32",
          "name": "s",
          "type": "bytes32"
        }
      ],
      "name": "selfPermitAllowedIfNecessary",
      "outputs": [],
      "stateMutability": "payable",
      "type": "function",
      "payable": true
    },
    {
      "inputs": [
        {
          "internalType": "address",
          "name": "token",
          "type": "address"
        },
        {
          "internalType": "uint256",
          "name": "value",
          "type": "uint256"
        },
        {
          "internalType": "uint256",
          "name": "deadline",
          "type": "uint256"
        },
        {
          "internalType": "uint8",
          "name": "v",
          "type": "uint8"
        },
        {
          "internalType": "bytes32",
          "name": "r",
          "type": "bytes32"
        },
        {
          "internalType": "bytes32",
          "name": "s",
          "type": "bytes32"
        }
      ],
      "name": "selfPermitIfNecessary",
      "outputs": [],
      "stateMutability": "payable",
      "type": "function",
      "payable": true
    },
    {
      "inputs": [
        {
          "internalType": "address",
          "name": "token",
          "type": "address"
        },
        {
          "internalType": "uint256",
          "name": "amountMinimum",
          "type": "uint256"
        },
        {
          "internalType": "address",
          "name": "recipient",
          "type": "address"
        }
      ],
      "name": "sweepToken",
      "outputs": [],
      "stateMutability": "payable",
      "type": "function",
      "payable": true
    },
    {
      "inputs": [
        {
          "internalType": "address",
          "name": "token",
          "type": "address"
        },
        {
          "internalType": "uint256",
          "name": "amountMinimum",
          "type": "uint256"
        },
        {
          "internalType": "address",
          "name": "recipient",
          "type": "address"
        },
        {
          "internalType": "uint256",
          "name": "feeBips",
          "type": "uint256"
        },
        {
          "internalType": "address",
          "name": "feeRecipient",
          "type": "address"
        }
      ],
      "name": "sweepTokenWithFee",
      "outputs": [],
      "stateMutability": "payable",
      "type": "function",
      "payable": true
    },
    {
      "inputs": [
        {
          "internalType": "uint256",
          "name": "amountMinimum",
          "type": "uint256"
        },
        {
          "internalType": "address",
          "name": "recipient",
          "type": "address"
        }
      ],
      "name": "unwrapWETH9",
      "outputs": [],
      "stateMutability": "payable",
      "type": "function",
      "payable": true
    },
    {
      "inputs": [
        {
          "internalType": "uint256",
          "name": "amountMinimum",
          "type": "uint256"
        },
        {
          "internalType": "address",
          "name": "recipient",
          "type": "address"
        },
        {
          "internalType": "uint256",
          "name": "feeBips",
          "type": "uint256"
        },
        {
          "internalType": "address",
          "name": "feeRecipient",
          "type": "address"
        }
      ],
      "name": "unwrapWETH9WithFee",
      "outputs": [],
      "stateMutability": "payable",
      "type": "function",
      "payable": true
    },
    {
      "stateMutability": "payable",
      "type": "receive",
      "payable": true
    },
    {
      "inputs": [
        {
          "internalType": "int256",
          "name": "amount0Delta",
          "type": "int256"
        },
        {
          "internalType": "int256",
          "name": "amount1Delta",
          "type": "int256"
        },
        {
          "internalType": "bytes",
          "name": "_data",
          "type": "bytes"
        }
      ],
      "name": "uniswapV3SwapCallback",
      "outputs": [],
      "stateMutability": "nonpayable",
      "type": "function"
    },
    {
      "inputs": [
        {
          "components": [
            {
              "internalType": "address",
              "name": "tokenIn",
              "type": "address"
            },
            {
              "internalType": "address",
              "name": "tokenOut",
              "type": "address"
            },
            {
              "internalType": "uint24",
              "name": "fee",
              "type": "uint24"
            },
            {
              "internalType": "address",
              "name": "recipient",
              "type": "address"
            },
            {
              "internalType": "uint256",
              "name": "deadline",
              "type": "uint256"
            },
            {
              "internalType": "uint256",
              "name": "amountIn",
              "type": "uint256"
            },
            {
              "internalType": "uint256",
              "name": "amountOutMinimum",
              "type": "uint256"
            },
            {
              "internalType": "uint160",
              "name": "sqrtPriceLimitX96",
              "type": "uint160"
            }
          ],
          "internalType": "struct ISwapRouter.ExactInputSingleParams",
          "name": "params",
          "type": "tuple"
        }
      ],
      "name": "exactInputSingle",
      "outputs": [
        {
          "internalType": "uint256",
          "name": "amountOut",
          "type": "uint256"
        }
      ],
      "stateMutability": "payable",
      "type": "function",
      "payable": true
    },
    {
      "inputs": [
        {
          "components": [
            {
              "internalType": "bytes",
              "name": "path",
              "type": "bytes"
            },
            {
              "internalType": "address",
              "name": "recipient",
              "type": "address"
            },
            {
              "internalType": "uint256",
              "name": "deadline",
              "type": "uint256"
            },
            {
              "internalType": "uint256",
              "name": "amountIn",
              "type": "uint256"
            },
            {
              "internalType": "uint256",
              "name": "amountOutMinimum",
              "type": "uint256"
            }
          ],
          "internalType": "struct ISwapRouter.ExactInputParams",
          "name": "params",
          "type": "tuple"
        }
      ],
      "name": "exactInput",
      "outputs": [
        {
          "internalType": "uint256",
          "name": "amountOut",
          "type": "uint256"
        }
      ],
      "stateMutability": "payable",
      "type": "function",
      "payable": true
    },
    {
      "inputs": [
        {
          "components": [
            {
              "internalType": "address",
              "name": "tokenIn",
              "type": "address"
            },
            {
              "internalType": "address",
              "name": "tokenOut",
              "type": "address"
            },
            {
              "internalType": "uint24",
              "name": "fee",
              "type": "uint24"
            },
            {
              "internalType": "address",
              "name": "recipient",
              "type": "address"
            },
            {
              "internalType": "uint256",
              "name": "deadline",
              "type": "uint256"
            },
            {
              "internalType": "uint256",
              "name": "amountOut",
              "type": "uint256"
            },
            {
              "internalType": "uint256",
              "name": "amountInMaximum",
              "type": "uint256"
            },
            {
              "internalType": "uint160",
              "name": "sqrtPriceLimitX96",
              "type": "uint160"
            }
          ],
          "internalType": "struct ISwapRouter.ExactOutputSingleParams",
          "name": "params",
          "type": "tuple"
        }
      ],
      "name": "exactOutputSingle",
      "outputs": [
        {
          "internalType": "uint256",
          "name": "amountIn",
          "type": "uint256"
        }
      ],
      "stateMutability": "payable",
      "type": "function",
      "payable": true
    },
    {
      "inputs": [
        {
          "components": [
            {
              "internalType": "bytes",
              "name": "path",
              "type": "bytes"
            },
            {
              "internalType": "address",
              "name": "recipient",
              "type": "address"
            },
            {
              "internalType": "uint256",
              "name": "deadline",
              "type": "uint256"
            },
            {
              "internalType": "uint256",
              "name": "amountOut",
              "type": "uint256"
            },
            {
              "internalType": "uint256",
              "name": "amountInMaximum",
              "type": "uint256"
            }
          ],
          "internalType": "struct ISwapRouter.ExactOutputParams",
          "name": "params",
          "type": "tuple"
        }
      ],
      "name": "exactOutput",
      "outputs": [
        {
          "internalType": "uint256",
          "name": "amountIn",
          "type": "uint256"
        }
      ],
      "stateMutability": "payable",
      "type": "function",
      "payable": true
    }
  ],
  "bytecode": "0x60c06040526000196000553480156200001757600080fd5b50604051620027a1380380620027a18339810160408190526200003a9162000076565b6001600160601b0319606092831b8116608052911b1660a052620000ad565b80516001600160a01b03811681146200007157600080fd5b919050565b6000806040838503121562000089578182fd5b620000948362000059565b9150620000a46020840162000059565b90509250929050565b60805160601c60a05160601c612698620001096000398061011252806104c752806105b2528061063f528061067f528061076a5280611721528061176752806117db525080610ba3528061109e52806118b652506126986000f3fe6080604052600436106101025760003560e01c8063c04b8d5911610095578063df2ab5bb11610064578063df2ab5bb14610284578063e0e189a014610297578063f28c0498146102aa578063f3995c67146102bd578063fa461e33146102d057610172565b8063c04b8d5914610236578063c2e3140a14610249578063c45a01551461025c578063db3e21981461027157610172565b80634aa4a4fc116100d15780634aa4a4fc146101ce5780639b2c0a37146101f0578063a4a78f0c14610203578063ac9650d81461021657610172565b806312210e8a14610177578063414bf3891461017f5780634659a494146101a857806349404b7c146101bb57610172565b3661017257336001600160a01b037f00000000000000000000000000000000000000000000000000000000000000001614610170576040805162461bcd60e51b81526020600482015260096024820152684e6f7420574554483960b81b604482015290519081900360640190fd5b005b600080fd5b6101706102f0565b61019261018d36600461222a565b610302565b60405161019f9190612583565b60405180910390f35b6101706101b6366004611fa8565b610429565b6101706101c9366004612331565b6104c3565b3480156101da57600080fd5b506101e361063d565b60405161019f9190612420565b6101706101fe366004612360565b610661565b610170610211366004611fa8565b61082d565b610229610224366004612008565b6108be565b60405161019f919061247a565b61019261024436600461217f565b6109fe565b610170610257366004611fa8565b610b12565b34801561026857600080fd5b506101e3610ba1565b61019261027f36600461222a565b610bc5565b610170610292366004611f09565b610cec565b6101706102a5366004611f4a565b610dca565b6101926102b8366004612246565b610ef1565b6101706102cb366004611fa8565b610fe7565b3480156102dc57600080fd5b506101706102eb36600461209a565b611059565b471561030057610300334761116c565b565b600081608001358061031261125b565b111561035b576040805162461bcd60e51b8152602060048201526013602482015272151c985b9cd858dd1a5bdb881d1bdbc81bdb19606a1b604482015290519081900360640190fd5b6103f460a08401356103736080860160608701611ee6565b610384610100870160e08801611ee6565b604080518082019091528061039c60208a018a611ee6565b6103ac60608b0160408c0161230e565b6103bc60408c0160208d01611ee6565b6040516020016103ce939291906123d5565b6040516020818303038152906040528152602001336001600160a01b031681525061125f565b91508260c001358210156104235760405162461bcd60e51b815260040161041a90612519565b60405180910390fd5b50919050565b604080516323f2ebc360e21b815233600482015230602482015260448101879052606481018690526001608482015260ff851660a482015260c4810184905260e4810183905290516001600160a01b03881691638fcbaf0c9161010480830192600092919082900301818387803b1580156104a357600080fd5b505af11580156104b7573d6000803e3d6000fd5b50505050505050505050565b60007f00000000000000000000000000000000000000000000000000000000000000006001600160a01b03166370a08231306040518263ffffffff1660e01b815260040180826001600160a01b0316815260200191505060206040518083038186803b15801561053257600080fd5b505afa158015610546573d6000803e3d6000fd5b505050506040513d602081101561055c57600080fd5b50519050828110156105aa576040805162461bcd60e51b8152602060048201526012602482015271496e73756666696369656e7420574554483960701b604482015290519081900360640190fd5b8015610638577f00000000000000000000000000000000000000000000000000000000000000006001600160a01b0316632e1a7d4d826040518263ffffffff1660e01b815260040180828152602001915050600060405180830381600087803b15801561061657600080fd5b505af115801561062a573d6000803e3d6000fd5b50505050610638828261116c565b505050565b7f000000000000000000000000000000000000000000000000000000000000000081565b600082118015610672575060648211155b61067b57600080fd5b60007f00000000000000000000000000000000000000000000000000000000000000006001600160a01b03166370a08231306040518263ffffffff1660e01b815260040180826001600160a01b0316815260200191505060206040518083038186803b1580156106ea57600080fd5b505afa1580156106fe573d6000803e3d6000fd5b505050506040513d602081101561071457600080fd5b5051905084811015610762576040805162461bcd60e51b8152602060048201526012602482015271496e73756666696369656e7420574554483960701b604482015290519081900360640190fd5b8015610826577f00000000000000000000000000000000000000000000000000000000000000006001600160a01b0316632e1a7d4d826040518263ffffffff1660e01b815260040180828152602001915050600060405180830381600087803b1580156107ce57600080fd5b505af11580156107e2573d6000803e3d6000fd5b5050505060006127106107fe85846113b190919063ffffffff16565b8161080557fe5b049050801561081857610818838261116c565b6108248582840361116c565b505b5050505050565b60408051636eb1769f60e11b81523360048201523060248201529051600019916001600160a01b0389169163dd62ed3e91604480820192602092909190829003018186803b15801561087e57600080fd5b505afa158015610892573d6000803e3d6000fd5b505050506040513d60208110156108a857600080fd5b5051101561082457610824868686868686610429565b60608167ffffffffffffffff811180156108d757600080fd5b5060405190808252806020026020018201604052801561090b57816020015b60608152602001906001900390816108f65790505b50905060005b828110156109f7576000803086868581811061092957fe5b905060200281019061093b919061258c565b604051610949929190612410565b600060405180830381855af49150503d8060008114610984576040519150601f19603f3d011682016040523d82523d6000602084013e610989565b606091505b5091509150816109d5576044815110156109a257600080fd5b600481019050808060200190518101906109bc9190612115565b60405162461bcd60e51b815260040161041a91906124da565b808484815181106109e257fe5b60209081029190910101525050600101610911565b5092915050565b6000816040015180610a0e61125b565b1115610a57576040805162461bcd60e51b8152602060048201526013602482015272151c985b9cd858dd1a5bdb881d1bdbc81bdb19606a1b604482015290519081900360640190fd5b335b6000610a6885600001516113db565b9050610ab4856060015182610a81578660200151610a83565b305b60006040518060400160405280610a9d8b600001516113e7565b8152602001876001600160a01b031681525061125f565b60608601528015610ad4578451309250610acd906113f6565b8552610ae1565b8460600151935050610ae7565b50610a59565b8360800151831015610b0b5760405162461bcd60e51b815260040161041a90612519565b5050919050565b60408051636eb1769f60e11b8152336004820152306024820152905186916001600160a01b0389169163dd62ed3e91604480820192602092909190829003018186803b158015610b6157600080fd5b505afa158015610b75573d6000803e3d6000fd5b505050506040513d6020811015610b8b57600080fd5b5051101561082457610824868686868686610fe7565b7f000000000000000000000000000000000000000000000000000000000000000081565b6000816080013580610bd561125b565b1115610c1e576040805162461bcd60e51b8152602060048201526013602482015272151c985b9cd858dd1a5bdb881d1bdbc81bdb19606a1b604482015290519081900360640190fd5b610cba60a0840135610c366080860160608701611ee6565b610c47610100870160e08801611ee6565b6040518060400160405280886020016020810190610c659190611ee6565b610c7560608b0160408c0161230e565b610c8260208c018c611ee6565b604051602001610c94939291906123d5565b6040516020818303038152906040528152602001336001600160a01b031681525061140d565b91508260c00135821115610ce05760405162461bcd60e51b815260040161041a906124ed565b50600019600055919050565b6000836001600160a01b03166370a08231306040518263ffffffff1660e01b815260040180826001600160a01b0316815260200191505060206040518083038186803b158015610d3b57600080fd5b505afa158015610d4f573d6000803e3d6000fd5b505050506040513d6020811015610d6557600080fd5b5051905082811015610db3576040805162461bcd60e51b815260206004820152601260248201527124b739bab33334b1b4b2b73a103a37b5b2b760711b604482015290519081900360640190fd5b8015610dc457610dc4848383611588565b50505050565b600082118015610ddb575060648211155b610de457600080fd5b6000856001600160a01b03166370a08231306040518263ffffffff1660e01b815260040180826001600160a01b0316815260200191505060206040518083038186803b158015610e3357600080fd5b505afa158015610e47573d6000803e3d6000fd5b505050506040513d6020811015610e5d57600080fd5b5051905084811015610eab576040805162461bcd60e51b815260206004820152601260248201527124b739bab33334b1b4b2b73a103a37b5b2b760711b604482015290519081900360640190fd5b8015610824576000612710610ec083866113b1565b81610ec757fe5b0490508015610edb57610edb878483611588565b610ee88786838503611588565b50505050505050565b6000816040013580610f0161125b565b1115610f4a576040805162461bcd60e51b8152602060048201526013602482015272151c985b9cd858dd1a5bdb881d1bdbc81bdb19606a1b604482015290519081900360640190fd5b610fbd6060840135610f626040860160208701611ee6565b6040805180820190915260009080610f7a898061258c565b8080601f0160208091040260200160405190810160405280939291908181526020018383808284376000920191909152505050908252503360209091015261140d565b5060005491508260800135821115610ce05760405162461bcd60e51b815260040161041a906124ed565b6040805163d505accf60e01b8152336004820152306024820152604481018790526064810186905260ff8516608482015260a4810184905260c4810183905290516001600160a01b0388169163d505accf9160e480830192600092919082900301818387803b1580156104a357600080fd5b60008413806110685750600083135b61107157600080fd5b600061107f8284018461227e565b9050600080600061109384600001516116cf565b9250925092506110c57f0000000000000000000000000000000000000000000000000000000000000000848484611700565b5060008060008a136110ec57846001600160a01b0316846001600160a01b03161089611103565b836001600160a01b0316856001600160a01b0316108a5b9150915081156111225761111d858760200151338461171f565b6104b7565b855161112d906113db565b1561115257855161113d906113f6565b865261114c813360008961140d565b506104b7565b806000819055508394506104b7858760200151338461171f565b604080516000808252602082019092526001600160a01b0384169083906040518082805190602001908083835b602083106111b85780518252601f199092019160209182019101611199565b6001836020036101000a03801982511681845116808217855250505050505090500191505060006040518083038185875af1925050503d806000811461121a576040519150601f19603f3d011682016040523d82523d6000602084013e61121f565b606091505b5050905080610638576040805162461bcd60e51b815260206004820152600360248201526253544560e81b604482015290519081900360640190fd5b4290565b60006001600160a01b038416611273573093505b600080600061128585600001516116cf565b919450925090506001600160a01b03808316908416106000806112a98686866118af565b6001600160a01b031663128acb088b856112c28f6118ed565b6001600160a01b038e16156112d7578d6112fd565b876112f65773fffd8963efd1fc6a506488495d951d5263988d256112fd565b6401000276a45b8d60405160200161130e9190612546565b6040516020818303038152906040526040518663ffffffff1660e01b815260040161133d959493929190612434565b6040805180830381600087803b15801561135657600080fd5b505af115801561136a573d6000803e3d6000fd5b505050506040513d601f19601f8201168201806040525081019061138e9190612077565b915091508261139d578161139f565b805b6000039b9a5050505050505050505050565b60008215806113cc575050818102818382816113c957fe5b04145b6113d557600080fd5b92915050565b8051604211155b919050565b60606113d5826000602b611903565b80516060906113d590839060179060161901611903565b60006001600160a01b038416611421573093505b600080600061143385600001516116cf565b919450925090506001600160a01b03808416908316106000806114578587866118af565b6001600160a01b031663128acb088b856114708f6118ed565b6000036001600160a01b038e1615611488578d6114ae565b876114a75773fffd8963efd1fc6a506488495d951d5263988d256114ae565b6401000276a45b8d6040516020016114bf9190612546565b6040516020818303038152906040526040518663ffffffff1660e01b81526004016114ee959493929190612434565b6040805180830381600087803b15801561150757600080fd5b505af115801561151b573d6000803e3d6000fd5b505050506040513d601f19601f8201168201806040525081019061153f9190612077565b9150915060008361155457818360000361155a565b82826000035b90985090506001600160a01b038a16611579578b811461157957600080fd5b50505050505050949350505050565b604080516001600160a01b038481166024830152604480830185905283518084039091018152606490920183526020820180516001600160e01b031663a9059cbb60e01b1781529251825160009485949389169392918291908083835b602083106116045780518252601f1990920191602091820191016115e5565b6001836020036101000a0380198251168184511680821785525050505050509050019150506000604051808303816000865af19150503d8060008114611666576040519150601f19603f3d011682016040523d82523d6000602084013e61166b565b606091505b5091509150818015611699575080511580611699575080806020019051602081101561169657600080fd5b50515b610826576040805162461bcd60e51b815260206004820152600260248201526114d560f21b604482015290519081900360640190fd5b600080806116dd8482611a54565b92506116ea846014611b04565b90506116f7846017611a54565b91509193909250565b600061171685611711868686611bab565b611c01565b95945050505050565b7f00000000000000000000000000000000000000000000000000000000000000006001600160a01b0316846001600160a01b03161480156117605750804710155b15611882577f00000000000000000000000000000000000000000000000000000000000000006001600160a01b031663d0e30db0826040518263ffffffff1660e01b81526004016000604051808303818588803b1580156117c057600080fd5b505af11580156117d4573d6000803e3d6000fd5b50505050507f00000000000000000000000000000000000000000000000000000000000000006001600160a01b031663a9059cbb83836040518363ffffffff1660e01b815260040180836001600160a01b0316815260200182815260200192505050602060405180830381600087803b15801561185057600080fd5b505af1158015611864573d6000803e3d6000fd5b505050506040513d602081101561187a57600080fd5b50610dc49050565b6001600160a01b0383163014156118a35761189e848383611588565b610dc4565b610dc484848484611c24565b60006118e57f00000000000000000000000000000000000000000000000000000000000000006118e0868686611bab565b611d74565b949350505050565b6000600160ff1b82106118ff57600080fd5b5090565b60608182601f01101561194e576040805162461bcd60e51b815260206004820152600e60248201526d736c6963655f6f766572666c6f7760901b604482015290519081900360640190fd5b828284011015611996576040805162461bcd60e51b815260206004820152600e60248201526d736c6963655f6f766572666c6f7760901b604482015290519081900360640190fd5b818301845110156119e2576040805162461bcd60e51b8152602060048201526011602482015270736c6963655f6f75744f66426f756e647360781b604482015290519081900360640190fd5b606082158015611a015760405191506000825260208201604052611a4b565b6040519150601f8416801560200281840101858101878315602002848b0101015b81831015611a3a578051835260209283019201611a22565b5050858452601f01601f1916604052505b50949350505050565b600081826014011015611aa3576040805162461bcd60e51b8152602060048201526012602482015271746f416464726573735f6f766572666c6f7760701b604482015290519081900360640190fd5b8160140183511015611af4576040805162461bcd60e51b8152602060048201526015602482015274746f416464726573735f6f75744f66426f756e647360581b604482015290519081900360640190fd5b500160200151600160601b900490565b600081826003011015611b52576040805162461bcd60e51b8152602060048201526011602482015270746f55696e7432345f6f766572666c6f7760781b604482015290519081900360640190fd5b8160030183511015611ba2576040805162461bcd60e51b8152602060048201526014602482015273746f55696e7432345f6f75744f66426f756e647360601b604482015290519081900360640190fd5b50016003015190565b611bb3611e58565b826001600160a01b0316846001600160a01b03161115611bd1579192915b50604080516060810182526001600160a01b03948516815292909316602083015262ffffff169181019190915290565b6000611c0d8383611d74565b9050336001600160a01b038216146113d557600080fd5b604080516001600160a01b0385811660248301528481166044830152606480830185905283518084039091018152608490920183526020820180516001600160e01b03166323b872dd60e01b178152925182516000948594938a169392918291908083835b60208310611ca85780518252601f199092019160209182019101611c89565b6001836020036101000a0380198251168184511680821785525050505050509050019150506000604051808303816000865af19150503d8060008114611d0a576040519150601f19603f3d011682016040523d82523d6000602084013e611d0f565b606091505b5091509150818015611d3d575080511580611d3d5750808060200190516020811015611d3a57600080fd5b50515b610824576040805162461bcd60e51b815260206004820152600360248201526229aa2360e91b604482015290519081900360640190fd5b600081602001516001600160a01b031682600001516001600160a01b031610611d9c57600080fd5b50805160208083015160409384015184516001600160a01b0394851681850152939091168385015262ffffff166060808401919091528351808403820181526080840185528051908301206001600160f81b031960a085015294901b6bffffffffffffffffffffffff191660a183015260b58201939093527fe34f199b19b2b4f47f68442619d555527d244f78a3297ea89325f843f87b8b5460d5808301919091528251808303909101815260f5909101909152805191012090565b604080516060810182526000808252602082018190529181019190915290565b80356113e28161264a565b600082601f830112611e93578081fd5b8135611ea6611ea1826125fc565b6125d8565b818152846020838601011115611eba578283fd5b816020850160208301379081016020019190915292915050565b60006101008284031215610423578081fd5b600060208284031215611ef7578081fd5b8135611f028161264a565b9392505050565b600080600060608486031215611f1d578182fd5b8335611f288161264a565b9250602084013591506040840135611f3f8161264a565b809150509250925092565b600080600080600060a08688031215611f61578081fd5b8535611f6c8161264a565b9450602086013593506040860135611f838161264a565b9250606086013591506080860135611f9a8161264a565b809150509295509295909350565b60008060008060008060c08789031215611fc0578081fd5b8635611fcb8161264a565b95506020870135945060408701359350606087013560ff81168114611fee578182fd5b9598949750929560808101359460a0909101359350915050565b6000806020838503121561201a578182fd5b823567ffffffffffffffff80821115612031578384fd5b818501915085601f830112612044578384fd5b813581811115612052578485fd5b8660208083028501011115612065578485fd5b60209290920196919550909350505050565b60008060408385031215612089578182fd5b505080516020909101519092909150565b600080600080606085870312156120af578182fd5b8435935060208501359250604085013567ffffffffffffffff808211156120d4578384fd5b818701915087601f8301126120e7578384fd5b8135818111156120f5578485fd5b886020828501011115612106578485fd5b95989497505060200194505050565b600060208284031215612126578081fd5b815167ffffffffffffffff81111561213c578182fd5b8201601f8101841361214c578182fd5b805161215a611ea1826125fc565b81815285602083850101111561216e578384fd5b61171682602083016020860161261e565b600060208284031215612190578081fd5b813567ffffffffffffffff808211156121a7578283fd5b9083019060a082860312156121ba578283fd5b60405160a0810181811083821117156121cf57fe5b6040528235828111156121e0578485fd5b6121ec87828601611e83565b8252506121fb60208401611e78565b602082015260408301356040820152606083013560608201526080830135608082015280935050505092915050565b6000610100828403121561223c578081fd5b611f028383611ed4565b600060208284031215612257578081fd5b813567ffffffffffffffff81111561226d578182fd5b820160a08185031215611f02578182fd5b60006020828403121561228f578081fd5b813567ffffffffffffffff808211156122a6578283fd5b90830190604082860312156122b9578283fd5b6040516040810181811083821117156122ce57fe5b6040528235828111156122df578485fd5b6122eb87828601611e83565b825250602083013592506122fe8361264a565b6020810192909252509392505050565b60006020828403121561231f578081fd5b813562ffffff81168114611f02578182fd5b60008060408385031215612343578182fd5b8235915060208301356123558161264a565b809150509250929050565b60008060008060808587031215612375578182fd5b8435935060208501356123878161264a565b925060408501359150606085013561239e8161264a565b939692955090935050565b600081518084526123c181602086016020860161261e565b601f01601f19169290920160200192915050565b606093841b6bffffffffffffffffffffffff19908116825260e89390931b6001600160e81b0319166014820152921b166017820152602b0190565b6000828483379101908152919050565b6001600160a01b0391909116815260200190565b6001600160a01b0386811682528515156020830152604082018590528316606082015260a06080820181905260009061246f908301846123a9565b979650505050505050565b6000602080830181845280855180835260408601915060408482028701019250838701855b828110156124cd57603f198886030184526124bb8583516123a9565b9450928501929085019060010161249f565b5092979650505050505050565b600060208252611f0260208301846123a9565b602080825260129082015271151bdbc81b5d58da081c995c5d595cdd195960721b604082015260600190565b602080825260139082015272151bdbc81b1a5d1d1b19481c9958d95a5d9959606a1b604082015260600190565b60006020825282516040602084015261256260608401826123a9565b602094909401516001600160a01b0316604093909301929092525090919050565b90815260200190565b6000808335601e198436030181126125a2578283fd5b83018035915067ffffffffffffffff8211156125bc578283fd5b6020019150368190038213156125d157600080fd5b9250929050565b60405181810167ffffffffffffffff811182821017156125f457fe5b604052919050565b600067ffffffffffffffff82111561261057fe5b50601f01601f191660200190565b60005b83811015612639578181015183820152602001612621565b83811115610dc45750506000910152565b6001600160a01b038116811461265f57600080fd5b5056fea26469706673582212201e6e94fe819f277542930c3171c372f3888cacf0ad0391f2b231f764df710e2564736f6c63430007060033",
  "immutableReferences": {
    "2547": [
      {
        "length": 32,
        "start": 2979
      },
      {
        "length": 32,
        "start": 4254
      },
      {
        "length": 32,
        "start": 6326
      }
    ],
    "2551": [
      {
        "length": 32,
        "start": 274
      },
      {
        "length": 32,
        "start": 1223
      },
      {
        "length": 32,
        "start": 1458
      },
      {
        "length": 32,
        "start": 1599
      },
      {
        "length": 32,
        "start": 1663
      },
      {
        "length": 32,
        "start": 1898
      },
      {
        "length": 32,
        "start": 5921
      },
      {
        "length": 32,
        "start": 5991
      },
      {
        "length": 32,
        "start": 6107
      }
    ]
  },
  "source": "// SPDX-License-Identifier: GPL-2.0-or-later\r\npragma solidity =0.7.6;\r\npragma abicoder v2;\r\n\r\nimport '@uniswap/v3-core/contracts/libraries/SafeCast.sol';\r\nimport '@uniswap/v3-core/contracts/libraries/TickMath.sol';\r\nimport '@uniswap/v3-core/contracts/interfaces/IUniswapV3Pool.sol';\r\n\r\nimport './interfaces/ISwapRouter.sol';\r\nimport './base/PeripheryImmutableState.sol';\r\nimport './base/PeripheryValidation.sol';\r\nimport './base/PeripheryPaymentsWithFee.sol';\r\nimport './base/Multicall.sol';\r\nimport './base/SelfPermit.sol';\r\nimport './libraries/Path.sol';\r\nimport './libraries/PoolAddress.sol';\r\nimport './libraries/CallbackValidation.sol';\r\nimport './interfaces/external/IWETH9.sol';\r\n\r\n/// @title Uniswap V3 Swap Router\r\n/// @notice Router for stateless execution of swaps against Uniswap V3\r\ncontract SwapRouter is\r\n    ISwapRouter,\r\n    PeripheryImmutableState,\r\n    PeripheryValidation,\r\n    PeripheryPaymentsWithFee,\r\n    Multicall,\r\n    SelfPermit\r\n{\r\n    using Path for bytes;\r\n    using SafeCast for uint256;\r\n\r\n    /// @dev Used as the placeholder value for amountInCached, because the computed amount in for an exact output swap\r\n    /// can never actually be this value\r\n    uint256 private constant DEFAULT_AMOUNT_IN_CACHED = type(uint256).max;\r\n\r\n    /// @dev Transient storage variable used for returning the computed amount in for an exact output swap.\r\n    uint256 private amountInCached = DEFAULT_AMOUNT_IN_CACHED;\r\n\r\n    constructor(address _factory, address _WETH9) PeripheryImmutableState(_factory, _WETH9) {}\r\n\r\n    /// @dev Returns the pool for the given token pair and fee. The pool contract may or may not exist.\r\n    function getPool(\r\n        address tokenA,\r\n        address tokenB,\r\n        uint24 fee\r\n    ) private view returns (IUniswapV3Pool) {\r\n        return IUniswapV3Pool(PoolAddress.computeAddress(factory, PoolAddress.getPoolKey(tokenA, tokenB, fee)));\r\n    }\r\n\r\n    struct SwapCallbackData {\r\n        bytes path;\r\n        address payer;\r\n    }\r\n\r\n    /// @inheritdoc IUniswapV3SwapCallback\r\n    function uniswapV3SwapCallback(\r\n        int256 amount0Delta,\r\n        int256 amount1Delta,\r\n        bytes calldata _data\r\n    ) external override {\r\n        require(amount0Delta > 0 || amount1Delta > 0); // swaps entirely within 0-liquidity regions are not supported\r\n        SwapCallbackData memory data = abi.decode(_data, (SwapCallbackData));\r\n        (address tokenIn, address tokenOut, uint24 fee) = data.path.decodeFirstPool();\r\n        CallbackValidation.verifyCallback(factory, tokenIn, tokenOut, fee);\r\n\r\n        (bool isExactInput, uint256 amountToPay) =\r\n            amount0Delta > 0\r\n                ? (tokenIn < tokenOut, uint256(amount0Delta))\r\n                : (tokenOut < tokenIn, uint256(amount1Delta));\r\n        if (isExactInput) {\r\n            pay(tokenIn, data.payer, msg.sender, amountToPay);\r\n        } else {\r\n            // either initiate the next swap or pay\r\n            if (data.path.hasMultiplePools()) {\r\n                data.path = data.path.skipToken();\r\n                exactOutputInternal(amountToPay, msg.sender, 0, data);\r\n            } else {\r\n                amountInCached = amountToPay;\r\n                tokenIn = tokenOut; // swap in/out because exact output swaps are reversed\r\n                pay(tokenIn, data.payer, msg.sender, amountToPay);\r\n            }\r\n        }\r\n    }\r\n\r\n    /// @dev Performs a single exact input swap\r\n    function exactInputInternal(\r\n        uint256 amountIn,\r\n        address recipient,\r\n        uint160 sqrtPriceLimitX96,\r\n        SwapCallbackData memory data\r\n    ) private returns (uint256 amountOut) {\r\n        // allow swapping to the router address with address 0\r\n        if (recipient == address(0)) recipient = address(this);\r\n\r\n        (address tokenIn, address tokenOut, uint24 fee) = data.path.decodeFirstPool();\r\n\r\n        bool zeroForOne = tokenIn < tokenOut;\r\n\r\n        (int256 amount0, int256 amount1) =\r\n            getPool(tokenIn, tokenOut, fee).swap(\r\n                recipient,\r\n                zeroForOne,\r\n                amountIn.toInt256(),\r\n                sqrtPriceLimitX96 == 0\r\n                    ? (zeroForOne ? TickMath.MIN_SQRT_RATIO + 1 : TickMath.MAX_SQRT_RATIO - 1)\r\n                    : sqrtPriceLimitX96,\r\n                abi.encode(data)\r\n            );\r\n\r\n        return uint256(-(zeroForOne ? amount1 : amount0));\r\n    }\r\n\r\n    /// @inheritdoc ISwapRouter\r\n    function exactInputSingle(ExactInputSingleParams calldata params)\r\n        external\r\n        payable\r\n        override\r\n        checkDeadline(params.deadline)\r\n        returns (uint256 amountOut)\r\n    {\r\n        amountOut = exactInputInternal(\r\n            params.amountIn,\r\n            params.recipient,\r\n            params.sqrtPriceLimitX96,\r\n            SwapCallbackData({path: abi.encodePacked(params.tokenIn, params.fee, params.tokenOut), payer: msg.sender})\r\n        );\r\n        require(amountOut >= params.amountOutMinimum, 'Too little received');\r\n    }\r\n\r\n    /// @inheritdoc ISwapRouter\r\n    function exactInput(ExactInputParams memory params)\r\n        external\r\n        payable\r\n        override\r\n        checkDeadline(params.deadline)\r\n        returns (uint256 amountOut)\r\n    {\r\n        address payer = msg.sender; // msg.sender pays for the first hop\r\n\r\n        while (true) {\r\n            bool hasMultiplePools = params.path.hasMultiplePools();\r\n\r\n            // the outputs of prior swaps become the inputs to subsequent ones\r\n            params.amountIn = exactInputInternal(\r\n                params.amountIn,\r\n                hasMultiplePools ? address(this) : params.recipient, // for intermediate swaps, this contract custodies\r\n                0,\r\n                SwapCallbackData({\r\n                    path: params.path.getFirstPool(), // only the first pool in the path is necessary\r\n                    payer: payer\r\n                })\r\n            );\r\n\r\n            // decide whether to continue or terminate\r\n            if (hasMultiplePools) {\r\n                payer = address(this); // at this point, the caller has paid\r\n                params.path = params.path.skipToken();\r\n            } else {\r\n                amountOut = params.amountIn;\r\n                break;\r\n            }\r\n        }\r\n\r\n        require(amountOut >= params.amountOutMinimum, 'Too little received');\r\n    }\r\n\r\n    /// @dev Performs a single exact output swap\r\n    function exactOutputInternal(\r\n        uint256 amountOut,\r\n        address recipient,\r\n        uint160 sqrtPriceLimitX96,\r\n        SwapCallbackData memory data\r\n    ) private returns (uint256 amountIn) {\r\n        // allow swapping to the router address with address 0\r\n        if (recipient == address(0)) recipient = address(this);\r\n\r\n        (address tokenOut, address tokenIn, uint24 fee) = data.path.decodeFirstPool();\r\n\r\n        bool zeroForOne = tokenIn < tokenOut;\r\n\r\n        (int256 amount0Delta, int256 amount1Delta) =\r\n            getPool(tokenIn, tokenOut, fee).swap(\r\n                recipient,\r\n                zeroForOne,\r\n                -amountOut.toInt256(),\r\n                sqrtPriceLimitX96 == 0\r\n                    ? (zeroForOne ? TickMath.MIN_SQRT_RATIO + 1 : TickMath.MAX_SQRT_RATIO - 1)\r\n                    : sqrtPriceLimitX96,\r\n                abi.encode(data)\r\n            );\r\n\r\n        uint256 amountOutReceived;\r\n        (amountIn, amountOutReceived) = zeroForOne\r\n            ? (uint256(amount0Delta), uint256(-amount1Delta))\r\n            : (uint256(amount1Delta), uint256(-amount0Delta));\r\n        // it's technically possible to not receive the full output amount,\r\n        // so if no price limit has been specified, require this possibility away\r\n        if (sqrtPriceLimitX96 == 0) require(amountOutReceived == amountOut);\r\n    }\r\n\r\n    /// @inheritdoc ISwapRouter\r\n    function exactOutputSingle(ExactOutputSingleParams calldata params)\r\n        external\r\n        payable\r\n        override\r\n        checkDeadline(params.deadline)\r\n        returns (uint256 amountIn)\r\n    {\r\n        // avoid an SLOAD by using the swap return data\r\n        amountIn = exactOutputInternal(\r\n            params.amountOut,\r\n            params.recipient,\r\n            params.sqrtPriceLimitX96,\r\n            SwapCallbackData({path: abi.encodePacked(params.tokenOut, params.fee, params.tokenIn), payer: msg.sender})\r\n        );\r\n\r\n        require(amountIn <= params.amountInMaximum, 'Too much requested');\r\n        // has to be reset even though we don't use it in the single hop case\r\n        amountInCached = DEFAULT_AMOUNT_IN_CACHED;\r\n    }\r\n\r\n    /// @inheritdoc ISwapRouter\r\n    function exactOutput(ExactOutputParams calldata params)\r\n        external\r\n        payable\r\n        override\r\n        checkDeadline(params.deadline)\r\n        returns (uint256 amountIn)\r\n    {\r\n        // it's okay that the payer is fixed to msg.sender here, as they're only paying for the \"final\" exact output\r\n        // swap, which happens first, and subsequent swaps are paid for within nested callback frames\r\n        exactOutputInternal(\r\n            params.amountOut,\r\n            params.recipient,\r\n            0,\r\n            SwapCallbackData({path: params.path, payer: msg.sender})\r\n        );\r\n\r\n        amountIn = amountInCached;\r\n        require(amountIn <= params.amountInMaximum, 'Too much requested');\r\n        amountInCached = DEFAULT_AMOUNT_IN_CACHED;\r\n    }\r\n}\r\n",
  "sourcePath": "D:/Blockchain Projects/Uniswap V3 Fork/periphery/contracts/SwapRouter.sol",
  "compiler": {
    "name": "solc",
    "version": "0.7.6+commit.7338295f.Emscripten.clang"
  },
  "schemaVersion": "3.4.1",
  "updatedAt": "2021-06-20T10:26:27.878Z",
  "networkType": "ethereum",
  "devdoc": {
    "kind": "dev",
    "methods": {
      "exactInput((bytes,address,uint256,uint256,uint256))": {
        "params": {
          "params": "The parameters necessary for the multi-hop swap, encoded as `ExactInputParams` in calldata"
        },
        "returns": {
          "amountOut": "The amount of the received token"
        }
      },
      "exactInputSingle((address,address,uint24,address,uint256,uint256,uint256,uint160))": {
        "params": {
          "params": "The parameters necessary for the swap, encoded as `ExactInputSingleParams` in calldata"
        },
        "returns": {
          "amountOut": "The amount of the received token"
        }
      },
      "exactOutput((bytes,address,uint256,uint256,uint256))": {
        "params": {
          "params": "The parameters necessary for the multi-hop swap, encoded as `ExactOutputParams` in calldata"
        },
        "returns": {
          "amountIn": "The amount of the input token"
        }
      },
      "exactOutputSingle((address,address,uint24,address,uint256,uint256,uint256,uint160))": {
        "params": {
          "params": "The parameters necessary for the swap, encoded as `ExactOutputSingleParams` in calldata"
        },
        "returns": {
          "amountIn": "The amount of the input token"
        }
      },
      "multicall(bytes[])": {
        "details": "The `msg.value` should not be trusted for any method callable from multicall.",
        "params": {
          "data": "The encoded function data for each of the calls to make to this contract"
        },
        "returns": {
          "results": "The results from each of the calls passed in via data"
        }
      },
      "refundETH()": {
        "details": "Useful for bundling with mint or increase liquidity that uses ether, or exact output swaps that use ether for the input amount"
      },
      "selfPermit(address,uint256,uint256,uint8,bytes32,bytes32)": {
        "details": "The `owner` is always msg.sender and the `spender` is always address(this).",
        "params": {
          "deadline": "A timestamp, the current blocktime must be less than or equal to this timestamp",
          "r": "Must produce valid secp256k1 signature from the holder along with `v` and `s`",
          "s": "Must produce valid secp256k1 signature from the holder along with `r` and `v`",
          "token": "The address of the token spent",
          "v": "Must produce valid secp256k1 signature from the holder along with `r` and `s`",
          "value": "The amount that can be spent of token"
        }
      },
      "selfPermitAllowed(address,uint256,uint256,uint8,bytes32,bytes32)": {
        "details": "The `owner` is always msg.sender and the `spender` is always address(this)",
        "params": {
          "expiry": "The timestamp at which the permit is no longer valid",
          "nonce": "The current nonce of the owner",
          "r": "Must produce valid secp256k1 signature from the holder along with `v` and `s`",
          "s": "Must produce valid secp256k1 signature from the holder along with `r` and `v`",
          "token": "The address of the token spent",
          "v": "Must produce valid secp256k1 signature from the holder along with `r` and `s`"
        }
      },
      "selfPermitAllowedIfNecessary(address,uint256,uint256,uint8,bytes32,bytes32)": {
        "details": "The `owner` is always msg.sender and the `spender` is always address(this) Can be used instead of #selfPermitAllowed to prevent calls from failing due to a frontrun of a call to #selfPermitAllowed.",
        "params": {
          "expiry": "The timestamp at which the permit is no longer valid",
          "nonce": "The current nonce of the owner",
          "r": "Must produce valid secp256k1 signature from the holder along with `v` and `s`",
          "s": "Must produce valid secp256k1 signature from the holder along with `r` and `v`",
          "token": "The address of the token spent",
          "v": "Must produce valid secp256k1 signature from the holder along with `r` and `s`"
        }
      },
      "selfPermitIfNecessary(address,uint256,uint256,uint8,bytes32,bytes32)": {
        "details": "The `owner` is always msg.sender and the `spender` is always address(this). Can be used instead of #selfPermit to prevent calls from failing due to a frontrun of a call to #selfPermit",
        "params": {
          "deadline": "A timestamp, the current blocktime must be less than or equal to this timestamp",
          "r": "Must produce valid secp256k1 signature from the holder along with `v` and `s`",
          "s": "Must produce valid secp256k1 signature from the holder along with `r` and `v`",
          "token": "The address of the token spent",
          "v": "Must produce valid secp256k1 signature from the holder along with `r` and `s`",
          "value": "The amount that can be spent of token"
        }
      },
      "sweepToken(address,uint256,address)": {
        "details": "The amountMinimum parameter prevents malicious contracts from stealing the token from users",
        "params": {
          "amountMinimum": "The minimum amount of token required for a transfer",
          "recipient": "The destination address of the token",
          "token": "The contract address of the token which will be transferred to `recipient`"
        }
      },
      "sweepTokenWithFee(address,uint256,address,uint256,address)": {
        "details": "The amountMinimum parameter prevents malicious contracts from stealing the token from users"
      },
      "uniswapV3SwapCallback(int256,int256,bytes)": {
        "details": "In the implementation you must pay the pool tokens owed for the swap. The caller of this method must be checked to be a UniswapV3Pool deployed by the canonical UniswapV3Factory. amount0Delta and amount1Delta can both be 0 if no tokens were swapped.",
        "params": {
          "amount0Delta": "The amount of token0 that was sent (negative) or must be received (positive) by the pool by the end of the swap. If positive, the callback must send that amount of token0 to the pool.",
          "amount1Delta": "The amount of token1 that was sent (negative) or must be received (positive) by the pool by the end of the swap. If positive, the callback must send that amount of token1 to the pool.",
          "data": "Any data passed through by the caller via the IUniswapV3PoolActions#swap call"
        }
      },
      "unwrapWETH9(uint256,address)": {
        "details": "The amountMinimum parameter prevents malicious contracts from stealing WETH9 from users.",
        "params": {
          "amountMinimum": "The minimum amount of WETH9 to unwrap",
          "recipient": "The address receiving ETH"
        }
      },
      "unwrapWETH9WithFee(uint256,address,uint256,address)": {
        "details": "The amountMinimum parameter prevents malicious contracts from stealing WETH9 from users."
      }
    },
    "stateVariables": {
      "DEFAULT_AMOUNT_IN_CACHED": {
        "details": "Used as the placeholder value for amountInCached, because the computed amount in for an exact output swap can never actually be this value"
      },
      "amountInCached": {
        "details": "Transient storage variable used for returning the computed amount in for an exact output swap."
      }
    },
    "title": "Uniswap V3 Swap Router",
    "version": 1
  },
  "userdoc": {
    "kind": "user",
    "methods": {
      "exactInput((bytes,address,uint256,uint256,uint256))": {
        "notice": "Swaps `amountIn` of one token for as much as possible of another along the specified path"
      },
      "exactInputSingle((address,address,uint24,address,uint256,uint256,uint256,uint160))": {
        "notice": "Swaps `amountIn` of one token for as much as possible of another token"
      },
      "exactOutput((bytes,address,uint256,uint256,uint256))": {
        "notice": "Swaps as little as possible of one token for `amountOut` of another along the specified path (reversed)"
      },
      "exactOutputSingle((address,address,uint24,address,uint256,uint256,uint256,uint160))": {
        "notice": "Swaps as little as possible of one token for `amountOut` of another token"
      },
      "multicall(bytes[])": {
        "notice": "Call multiple functions in the current contract and return the data from all of them if they all succeed"
      },
      "refundETH()": {
        "notice": "Refunds any ETH balance held by this contract to the `msg.sender`"
      },
      "selfPermit(address,uint256,uint256,uint8,bytes32,bytes32)": {
        "notice": "Permits this contract to spend a given token from `msg.sender`"
      },
      "selfPermitAllowed(address,uint256,uint256,uint8,bytes32,bytes32)": {
        "notice": "Permits this contract to spend the sender's tokens for permit signatures that have the `allowed` parameter"
      },
      "selfPermitAllowedIfNecessary(address,uint256,uint256,uint8,bytes32,bytes32)": {
        "notice": "Permits this contract to spend the sender's tokens for permit signatures that have the `allowed` parameter"
      },
      "selfPermitIfNecessary(address,uint256,uint256,uint8,bytes32,bytes32)": {
        "notice": "Permits this contract to spend a given token from `msg.sender`"
      },
      "sweepToken(address,uint256,address)": {
        "notice": "Transfers the full amount of a token held by this contract to recipient"
      },
      "sweepTokenWithFee(address,uint256,address,uint256,address)": {
        "notice": "Transfers the full amount of a token held by this contract to recipient, with a percentage between 0 (exclusive) and 1 (inclusive) going to feeRecipient"
      },
      "uniswapV3SwapCallback(int256,int256,bytes)": {
        "notice": "Called to `msg.sender` after executing a swap via IUniswapV3Pool#swap."
      },
      "unwrapWETH9(uint256,address)": {
        "notice": "Unwraps the contract's WETH9 balance and sends it to recipient as ETH."
      },
      "unwrapWETH9WithFee(uint256,address,uint256,address)": {
        "notice": "Unwraps the contract's WETH9 balance and sends it to recipient as ETH, with a percentage between 0 (exclusive), and 1 (inclusive) going to feeRecipient"
      }
    },
    "notice": "Router for stateless execution of swaps against Uniswap V3",
    "version": 1
  }
}