{
  "contractName": "TestCallbackValidation",
  "abi": [
    {
      "inputs": [
        {
          "internalType": "address",
          "name": "factory",
          "type": "address"
        },
        {
          "internalType": "address",
          "name": "tokenA",
          "type": "address"
        },
        {
          "internalType": "address",
          "name": "tokenB",
          "type": "address"
        },
        {
          "internalType": "uint24",
          "name": "fee",
          "type": "uint24"
        }
      ],
      "name": "verifyCallback",
      "outputs": [
        {
          "internalType": "contract IUniswapV3Pool",
          "name": "pool",
          "type": "address"
        }
      ],
      "stateMutability": "view",
      "type": "function"
    }
  ],
  "bytecode": "0x608060405234801561001057600080fd5b50610274806100206000396000f3fe608060405234801561001057600080fd5b506004361061002b5760003560e01c80638bdb192514610030575b600080fd5b6100726004803603608081101561004657600080fd5b5080356001600160a01b03908116916020810135821691604082013516906060013562ffffff1661008e565b604080516001600160a01b039092168252519081900360200190f35b600061009c858585856100a5565b95945050505050565b600061009c856100b68686866100bb565b610111565b6100c361021e565b826001600160a01b0316846001600160a01b031611156100e1579192915b50604080516060810182526001600160a01b03948516815292909316602083015262ffffff169181019190915290565b600061011d838361013a565b9050336001600160a01b0382161461013457600080fd5b92915050565b600081602001516001600160a01b031682600001516001600160a01b03161061016257600080fd5b50805160208083015160409384015184516001600160a01b0394851681850152939091168385015262ffffff166060808401919091528351808403820181526080840185528051908301206001600160f81b031960a085015294901b6bffffffffffffffffffffffff191660a183015260b58201939093527fe34f199b19b2b4f47f68442619d555527d244f78a3297ea89325f843f87b8b5460d5808301919091528251808303909101815260f5909101909152805191012090565b60408051606081018252600080825260208201819052918101919091529056fea26469706673582212200b2ac4480ccf35ea7eb5b66f18aaf7e8ba4700e4635bcb104dc1909332b2ace664736f6c63430007060033",
  "immutableReferences": {},
  "source": "// SPDX-License-Identifier: UNLICENSED\r\npragma solidity =0.7.6;\r\n\r\nimport '../libraries/CallbackValidation.sol';\r\n\r\ncontract TestCallbackValidation {\r\n    function verifyCallback(\r\n        address factory,\r\n        address tokenA,\r\n        address tokenB,\r\n        uint24 fee\r\n    ) external view returns (IUniswapV3Pool pool) {\r\n        return CallbackValidation.verifyCallback(factory, tokenA, tokenB, fee);\r\n    }\r\n}\r\n",
  "sourcePath": "D:/Blockchain Projects/Uniswap V3 Fork/periphery/contracts/test/TestCallbackValidation.sol",
  "compiler": {
    "name": "solc",
    "version": "0.7.6+commit.7338295f.Emscripten.clang"
  },
  "schemaVersion": "3.4.1",
  "updatedAt": "2021-06-16T07:48:26.636Z",
  "devdoc": {
    "kind": "dev",
    "methods": {},
    "version": 1
  },
  "userdoc": {
    "kind": "user",
    "methods": {},
    "version": 1
  }
}