{
  "contractName": "TickLensTest",
  "abi": [
    {
      "inputs": [
        {
          "internalType": "address",
          "name": "pool",
          "type": "address"
        },
        {
          "internalType": "int16",
          "name": "tickBitmapIndex",
          "type": "int16"
        }
      ],
      "name": "getPopulatedTicksInWord",
      "outputs": [
        {
          "components": [
            {
              "internalType": "int24",
              "name": "tick",
              "type": "int24"
            },
            {
              "internalType": "int128",
              "name": "liquidityNet",
              "type": "int128"
            },
            {
              "internalType": "uint128",
              "name": "liquidityGross",
              "type": "uint128"
            }
          ],
          "internalType": "struct ITickLens.PopulatedTick[]",
          "name": "populatedTicks",
          "type": "tuple[]"
        }
      ],
      "stateMutability": "view",
      "type": "function"
    },
    {
      "inputs": [
        {
          "internalType": "address",
          "name": "pool",
          "type": "address"
        },
        {
          "internalType": "int16",
          "name": "tickBitmapIndex",
          "type": "int16"
        }
      ],
      "name": "getGasCostOfGetPopulatedTicksInWord",
      "outputs": [
        {
          "internalType": "uint256",
          "name": "",
          "type": "uint256"
        }
      ],
      "stateMutability": "view",
      "type": "function"
    }
  ],
  "bytecode": "0x608060405234801561001057600080fd5b50610579806100206000396000f3fe608060405234801561001057600080fd5b50600436106100365760003560e01c8063351fb4781461003b578063f0c2e7bc14610064575b600080fd5b61004e610049366004610379565b610084565b60405161005b919061049e565b60405180910390f35b610077610072366004610379565b61030a565b60405161005b9190610522565b60606000836001600160a01b0316635339c296846040518263ffffffff1660e01b81526004016100b49190610506565b60206040518083038186803b1580156100cc57600080fd5b505afa1580156100e0573d6000803e3d6000fd5b505050506040513d601f19601f820116820180604052508101906101049190610486565b90506000805b61010081101561012e576001811b831615610126576001909101905b60010161010a565b506000856001600160a01b031663d0c93a7c6040518163ffffffff1660e01b815260040160206040518083038186803b15801561016a57600080fd5b505afa15801561017e573d6000803e3d6000fd5b505050506040513d601f19601f820116820180604052508101906101a291906103b7565b90508167ffffffffffffffff811180156101bb57600080fd5b506040519080825280602002602001820160405280156101f557816020015b6101e2610325565b8152602001906001900390816101da5790505b50935060005b610100811015610300576001811b8416156102f85760405163f30dba9360e01b8152600187900b60020b60081b820183029060009081906001600160a01b038b169063f30dba9390610251908690600401610514565b6101006040518083038186803b15801561026a57600080fd5b505afa15801561027e573d6000803e3d6000fd5b505050506040513d601f19601f820116820180604052508101906102a291906103df565b5050505050509150915060405180606001604052808460020b815260200182600f0b8152602001836001600160801b0316815250888760019003975087815181106102e957fe5b60200260200101819052505050505b6001016101fb565b5050505092915050565b6000805a905061031a8484610084565b505a90039392505050565b604080516060810182526000808252602082018190529181019190915290565b8051801515811461035557600080fd5b919050565b80516103558161052b565b805163ffffffff8116811461035557600080fd5b6000806040838503121561038b578182fd5b82356103968161052b565b91506020830135600181900b81146103ac578182fd5b809150509250929050565b6000602082840312156103c8578081fd5b81518060020b81146103d8578182fd5b9392505050565b600080600080600080600080610100898b0312156103fb578384fd5b88516001600160801b0381168114610411578485fd5b80985050602089015180600f0b8114610428578485fd5b80975050604089015195506060890151945060808901518060060b811461044d578485fd5b935061045b60a08a0161035a565b925061046960c08a01610365565b915061047760e08a01610345565b90509295985092959890939650565b600060208284031215610497578081fd5b5051919050565b602080825282518282018190526000919060409081850190868401855b828110156104f9578151805160020b855286810151600f0b878601528501516001600160801b031685850152606090930192908501906001016104bb565b5091979650505050505050565b60019190910b815260200190565b60029190910b815260200190565b90815260200190565b6001600160a01b038116811461054057600080fd5b5056fea2646970667358221220170e1bb520a5ca466682411a0134800e56343b3e9e88bf90e3851f536db87db864736f6c63430007060033",
  "immutableReferences": {},
  "source": "// SPDX-License-Identifier: GPL-2.0-or-later\r\npragma solidity >=0.5.0;\r\npragma abicoder v2;\r\n\r\nimport '@uniswap/v3-core/contracts/interfaces/IUniswapV3Pool.sol';\r\nimport '../lens/TickLens.sol';\r\n\r\n/// @title Tick Lens contract\r\ncontract TickLensTest is TickLens {\r\n    function getGasCostOfGetPopulatedTicksInWord(address pool, int16 tickBitmapIndex) external view returns (uint256) {\r\n        uint256 gasBefore = gasleft();\r\n        getPopulatedTicksInWord(pool, tickBitmapIndex);\r\n        return gasBefore - gasleft();\r\n    }\r\n}\r\n",
  "sourcePath": "D:/Blockchain Projects/Uniswap V3 Fork/periphery/contracts/test/TickLensTest.sol",
  "compiler": {
    "name": "solc",
    "version": "0.7.6+commit.7338295f.Emscripten.clang"
  },
  "schemaVersion": "3.4.1",
  "updatedAt": "2021-06-16T07:48:26.650Z",
  "devdoc": {
    "kind": "dev",
    "methods": {
      "getPopulatedTicksInWord(address,int16)": {
        "params": {
          "pool": "The address of the pool for which to fetch populated tick data",
          "tickBitmapIndex": "The index of the word in the tick bitmap for which to parse the bitmap and fetch all the populated ticks"
        },
        "returns": {
          "populatedTicks": "An array of tick data for the given word in the tick bitmap"
        }
      }
    },
    "title": "Tick Lens contract",
    "version": 1
  },
  "userdoc": {
    "kind": "user",
    "methods": {
      "getPopulatedTicksInWord(address,int16)": {
        "notice": "Get all the tick data for the populated ticks from a word of the tick bitmap of a pool"
      }
    },
    "version": 1
  }
}